{
  "_format": "hh-sol-artifact-1",
  "contractName": "CitrusCartel1155",
  "sourceName": "contracts/CitrusCartel1155.sol",
  "abi": [
    {
      "inputs": [],
      "stateMutability": "nonpayable",
      "type": "constructor"
    },
    {
      "inputs": [
        {
          "internalType": "address",
          "name": "sender",
          "type": "address"
        },
        {
          "internalType": "uint256",
          "name": "balance",
          "type": "uint256"
        },
        {
          "internalType": "uint256",
          "name": "needed",
          "type": "uint256"
        },
        {
          "internalType": "uint256",
          "name": "tokenId",
          "type": "uint256"
        }
      ],
      "name": "ERC1155InsufficientBalance",
      "type": "error"
    },
    {
      "inputs": [
        {
          "internalType": "address",
          "name": "approver",
          "type": "address"
        }
      ],
      "name": "ERC1155InvalidApprover",
      "type": "error"
    },
    {
      "inputs": [
        {
          "internalType": "uint256",
          "name": "idsLength",
          "type": "uint256"
        },
        {
          "internalType": "uint256",
          "name": "valuesLength",
          "type": "uint256"
        }
      ],
      "name": "ERC1155InvalidArrayLength",
      "type": "error"
    },
    {
      "inputs": [
        {
          "internalType": "address",
          "name": "operator",
          "type": "address"
        }
      ],
      "name": "ERC1155InvalidOperator",
      "type": "error"
    },
    {
      "inputs": [
        {
          "internalType": "address",
          "name": "receiver",
          "type": "address"
        }
      ],
      "name": "ERC1155InvalidReceiver",
      "type": "error"
    },
    {
      "inputs": [
        {
          "internalType": "address",
          "name": "sender",
          "type": "address"
        }
      ],
      "name": "ERC1155InvalidSender",
      "type": "error"
    },
    {
      "inputs": [
        {
          "internalType": "address",
          "name": "operator",
          "type": "address"
        },
        {
          "internalType": "address",
          "name": "owner",
          "type": "address"
        }
      ],
      "name": "ERC1155MissingApprovalForAll",
      "type": "error"
    },
    {
      "inputs": [
        {
          "internalType": "address",
          "name": "owner",
          "type": "address"
        }
      ],
      "name": "OwnableInvalidOwner",
      "type": "error"
    },
    {
      "inputs": [
        {
          "internalType": "address",
          "name": "account",
          "type": "address"
        }
      ],
      "name": "OwnableUnauthorizedAccount",
      "type": "error"
    },
    {
      "inputs": [],
      "name": "ReentrancyGuardReentrantCall",
      "type": "error"
    },
    {
      "anonymous": false,
      "inputs": [
        {
          "indexed": true,
          "internalType": "address",
          "name": "account",
          "type": "address"
        },
        {
          "indexed": true,
          "internalType": "address",
          "name": "operator",
          "type": "address"
        },
        {
          "indexed": false,
          "internalType": "bool",
          "name": "approved",
          "type": "bool"
        }
      ],
      "name": "ApprovalForAll",
      "type": "event"
    },
    {
      "anonymous": false,
      "inputs": [
        {
          "indexed": true,
          "internalType": "address",
          "name": "previousOwner",
          "type": "address"
        },
        {
          "indexed": true,
          "internalType": "address",
          "name": "newOwner",
          "type": "address"
        }
      ],
      "name": "OwnershipTransferred",
      "type": "event"
    },
    {
      "anonymous": false,
      "inputs": [
        {
          "indexed": true,
          "internalType": "address",
          "name": "operator",
          "type": "address"
        },
        {
          "indexed": true,
          "internalType": "address",
          "name": "from",
          "type": "address"
        },
        {
          "indexed": true,
          "internalType": "address",
          "name": "to",
          "type": "address"
        },
        {
          "indexed": false,
          "internalType": "uint256[]",
          "name": "ids",
          "type": "uint256[]"
        },
        {
          "indexed": false,
          "internalType": "uint256[]",
          "name": "values",
          "type": "uint256[]"
        }
      ],
      "name": "TransferBatch",
      "type": "event"
    },
    {
      "anonymous": false,
      "inputs": [
        {
          "indexed": true,
          "internalType": "address",
          "name": "operator",
          "type": "address"
        },
        {
          "indexed": true,
          "internalType": "address",
          "name": "from",
          "type": "address"
        },
        {
          "indexed": true,
          "internalType": "address",
          "name": "to",
          "type": "address"
        },
        {
          "indexed": false,
          "internalType": "uint256",
          "name": "id",
          "type": "uint256"
        },
        {
          "indexed": false,
          "internalType": "uint256",
          "name": "value",
          "type": "uint256"
        }
      ],
      "name": "TransferSingle",
      "type": "event"
    },
    {
      "anonymous": false,
      "inputs": [
        {
          "indexed": false,
          "internalType": "string",
          "name": "value",
          "type": "string"
        },
        {
          "indexed": true,
          "internalType": "uint256",
          "name": "id",
          "type": "uint256"
        }
      ],
      "name": "URI",
      "type": "event"
    },
    {
      "inputs": [],
      "name": "PRICE",
      "outputs": [
        {
          "internalType": "uint256",
          "name": "",
          "type": "uint256"
        }
      ],
      "stateMutability": "view",
      "type": "function"
    },
    {
      "inputs": [
        {
          "internalType": "address",
          "name": "_user",
          "type": "address"
        },
        {
          "internalType": "uint8",
          "name": "_level",
          "type": "uint8"
        }
      ],
      "name": "addToWhitelist",
      "outputs": [],
      "stateMutability": "nonpayable",
      "type": "function"
    },
    {
      "inputs": [
        {
          "internalType": "address",
          "name": "account",
          "type": "address"
        },
        {
          "internalType": "uint256",
          "name": "id",
          "type": "uint256"
        }
      ],
      "name": "balanceOf",
      "outputs": [
        {
          "internalType": "uint256",
          "name": "",
          "type": "uint256"
        }
      ],
      "stateMutability": "view",
      "type": "function"
    },
    {
      "inputs": [
        {
          "internalType": "address[]",
          "name": "accounts",
          "type": "address[]"
        },
        {
          "internalType": "uint256[]",
          "name": "ids",
          "type": "uint256[]"
        }
      ],
      "name": "balanceOfBatch",
      "outputs": [
        {
          "internalType": "uint256[]",
          "name": "",
          "type": "uint256[]"
        }
      ],
      "stateMutability": "view",
      "type": "function"
    },
    {
      "inputs": [
        {
          "internalType": "address",
          "name": "",
          "type": "address"
        }
      ],
      "name": "hasMinted",
      "outputs": [
        {
          "internalType": "bool",
          "name": "",
          "type": "bool"
        }
      ],
      "stateMutability": "view",
      "type": "function"
    },
    {
      "inputs": [
        {
          "internalType": "address",
          "name": "account",
          "type": "address"
        },
        {
          "internalType": "address",
          "name": "operator",
          "type": "address"
        }
      ],
      "name": "isApprovedForAll",
      "outputs": [
        {
          "internalType": "bool",
          "name": "",
          "type": "bool"
        }
      ],
      "stateMutability": "view",
      "type": "function"
    },
    {
      "inputs": [],
      "name": "mint",
      "outputs": [],
      "stateMutability": "payable",
      "type": "function"
    },
    {
      "inputs": [],
      "name": "owner",
      "outputs": [
        {
          "internalType": "address",
          "name": "",
          "type": "address"
        }
      ],
      "stateMutability": "view",
      "type": "function"
    },
    {
      "inputs": [],
      "name": "renounceOwnership",
      "outputs": [],
      "stateMutability": "nonpayable",
      "type": "function"
    },
    {
      "inputs": [
        {
          "internalType": "address",
          "name": "from",
          "type": "address"
        },
        {
          "internalType": "address",
          "name": "to",
          "type": "address"
        },
        {
          "internalType": "uint256[]",
          "name": "ids",
          "type": "uint256[]"
        },
        {
          "internalType": "uint256[]",
          "name": "values",
          "type": "uint256[]"
        },
        {
          "internalType": "bytes",
          "name": "data",
          "type": "bytes"
        }
      ],
      "name": "safeBatchTransferFrom",
      "outputs": [],
      "stateMutability": "nonpayable",
      "type": "function"
    },
    {
      "inputs": [
        {
          "internalType": "address",
          "name": "from",
          "type": "address"
        },
        {
          "internalType": "address",
          "name": "to",
          "type": "address"
        },
        {
          "internalType": "uint256",
          "name": "id",
          "type": "uint256"
        },
        {
          "internalType": "uint256",
          "name": "value",
          "type": "uint256"
        },
        {
          "internalType": "bytes",
          "name": "data",
          "type": "bytes"
        }
      ],
      "name": "safeTransferFrom",
      "outputs": [],
      "stateMutability": "nonpayable",
      "type": "function"
    },
    {
      "inputs": [
        {
          "internalType": "address",
          "name": "operator",
          "type": "address"
        },
        {
          "internalType": "bool",
          "name": "approved",
          "type": "bool"
        }
      ],
      "name": "setApprovalForAll",
      "outputs": [],
      "stateMutability": "nonpayable",
      "type": "function"
    },
    {
      "inputs": [
        {
          "internalType": "bytes4",
          "name": "interfaceId",
          "type": "bytes4"
        }
      ],
      "name": "supportsInterface",
      "outputs": [
        {
          "internalType": "bool",
          "name": "",
          "type": "bool"
        }
      ],
      "stateMutability": "view",
      "type": "function"
    },
    {
      "inputs": [
        {
          "internalType": "address",
          "name": "newOwner",
          "type": "address"
        }
      ],
      "name": "transferOwnership",
      "outputs": [],
      "stateMutability": "nonpayable",
      "type": "function"
    },
    {
      "inputs": [
        {
          "internalType": "uint256",
          "name": "id",
          "type": "uint256"
        }
      ],
      "name": "uri",
      "outputs": [
        {
          "internalType": "string",
          "name": "",
          "type": "string"
        }
      ],
      "stateMutability": "view",
      "type": "function"
    },
    {
      "inputs": [
        {
          "internalType": "uint8",
          "name": "",
          "type": "uint8"
        }
      ],
      "name": "uriByLevel",
      "outputs": [
        {
          "internalType": "string",
          "name": "",
          "type": "string"
        }
      ],
      "stateMutability": "view",
      "type": "function"
    },
    {
      "inputs": [
        {
          "internalType": "address",
          "name": "",
          "type": "address"
        }
      ],
      "name": "whitelistLevel",
      "outputs": [
        {
          "internalType": "uint8",
          "name": "",
          "type": "uint8"
        }
      ],
      "stateMutability": "view",
      "type": "function"
    },
    {
      "inputs": [],
      "name": "withdraw",
      "outputs": [],
      "stateMutability": "nonpayable",
      "type": "function"
    }
  ],
  "bytecode": "0x60806040523480156200001157600080fd5b5060408051808201909152600c81526b10d255149554d0d05495115360a21b602082015233906200004281620001d4565b506001600160a01b0381166200007257604051631e4fbdf760e01b81526000600482015260240160405180910390fd5b6200007d81620001e6565b5060016004556040805160608101909152603280825262001b0e6020830139600160005260076020527fb39221ace053465ec3453ce2b36430bd138b997ecea25c1043da0c366812b82890620000d49082620002df565b5060405180606001604052806032815260200162001b0e60329139600260005260076020527fb7c774451310d1be4108bc180d1b52823cb0ee0274a6c0081bcaf94f115fb96d90620001279082620002df565b5060405180606001604052806032815260200162001b0e60329139600360005260076020527f3be6fd20d5acfde5b873b48692cd31f4d3c7e8ee8a813af4696af8859e5ca6c6906200017a9082620002df565b5060405180606001604052806032815260200162001b0e60329139600460005260076020527fb805995a7ec585a251200611a61d179cfd7fb105e1ab17dc415a7336783786f790620001cd9082620002df565b50620003ab565b6002620001e28282620002df565b5050565b600380546001600160a01b038381166001600160a01b0319831681179093556040519116919082907f8be0079c531659141344cd1fd0a4f28419497f9722a3daafe3b4186f6b6457e090600090a35050565b634e487b7160e01b600052604160045260246000fd5b600181811c908216806200026357607f821691505b6020821081036200028457634e487b7160e01b600052602260045260246000fd5b50919050565b601f821115620002da576000816000526020600020601f850160051c81016020861015620002b55750805b601f850160051c820191505b81811015620002d657828155600101620002c1565b5050505b505050565b81516001600160401b03811115620002fb57620002fb62000238565b62000313816200030c84546200024e565b846200028a565b602080601f8311600181146200034b5760008415620003325750858301515b600019600386901b1c1916600185901b178555620002d6565b600085815260208120601f198616915b828110156200037c578886015182559484019460019091019084016200035b565b50858210156200039b5787850151600019600388901b60f8161c191681555b5050505050600190811b01905550565b61175380620003bb6000396000f3fe6080604052600436106101085760003560e01c80636263fc6711610095578063a22cb46511610064578063a22cb465146102f2578063c38eede214610312578063e985e9c514610332578063f242432a14610352578063f2fde38b1461037257600080fd5b80636263fc6714610259578063715018a61461029b5780638d859f3e146102b05780638da5cb5b146102ca57600080fd5b80631249c58b116100dc5780631249c58b146101bf5780632eb2c2d6146101c757806338e21cce146101e75780633ccfd60b146102175780634e1273f41461022c57600080fd5b8062fdd58e1461010d57806301ffc9a7146101405780630263b858146101705780630e89341c14610192575b600080fd5b34801561011957600080fd5b5061012d6101283660046110a0565b610392565b6040519081526020015b60405180910390f35b34801561014c57600080fd5b5061016061015b3660046110e0565b6103ba565b6040519015158152602001610137565b34801561017c57600080fd5b5061019061018b366004611115565b61040a565b005b34801561019e57600080fd5b506101b26101ad366004611148565b610498565b60405161013791906111a7565b61019061053e565b3480156101d357600080fd5b506101906101e2366004611304565b610684565b3480156101f357600080fd5b506101606102023660046113ae565b60056020526000908152604090205460ff1681565b34801561022357600080fd5b506101906106eb565b34801561023857600080fd5b5061024c6102473660046113c9565b61072f565b60405161013791906114c5565b34801561026557600080fd5b506102896102743660046113ae565b60066020526000908152604090205460ff1681565b60405160ff9091168152602001610137565b3480156102a757600080fd5b506101906107fc565b3480156102bc57600080fd5b5061012d65b5e620f4800081565b3480156102d657600080fd5b506003546040516001600160a01b039091168152602001610137565b3480156102fe57600080fd5b5061019061030d3660046114d8565b61080e565b34801561031e57600080fd5b506101b261032d366004611514565b61081d565b34801561033e57600080fd5b5061016061034d36600461152f565b6108b7565b34801561035e57600080fd5b5061019061036d366004611559565b6108e5565b34801561037e57600080fd5b5061019061038d3660046113ae565b610944565b6000818152602081815260408083206001600160a01b03861684529091529020545b92915050565b60006001600160e01b03198216636cdb3d1360e11b14806103eb57506001600160e01b031982166303a24d0760e21b145b806103b457506301ffc9a760e01b6001600160e01b03198316146103b4565b61041261097f565b60018160ff161015801561042a575060048160ff1611155b61046b5760405162461bcd60e51b815260206004820152600d60248201526c125b9d985b1a59081b195d995b609a1b60448201526064015b60405180910390fd5b6001600160a01b03919091166000908152600660205260409020805460ff191660ff909216919091179055565b60ff811660009081526007602052604090208054606091906104b9906115be565b80601f01602080910402602001604051908101604052809291908181526020018280546104e5906115be565b80156105325780601f1061050757610100808354040283529160200191610532565b820191906000526020600020905b81548152906001019060200180831161051557829003601f168201915b50505050509050919050565b6105466109ac565b3360009081526005602052604090205460ff16156105975760405162461bcd60e51b815260206004820152600e60248201526d105b1c9958591e481b5a5b9d195960921b6044820152606401610462565b3360009081526006602052604090205460ff166105e85760405162461bcd60e51b815260206004820152600f60248201526e139bdd081dda1a5d195b1a5cdd1959608a1b6044820152606401610462565b65b5e620f4800034146106305760405162461bcd60e51b815260206004820152601060248201526f15dc9bdb99c811551208185b5bdd5b9d60821b6044820152606401610462565b3360008181526006602090815260408083205460058352818420805460ff19166001908117909155825193840190925292825260ff909216926106779290918491906109d6565b506106826001600455565b565b336001600160a01b03861681148015906106a557506106a386826108b7565b155b156106d65760405163711bec9160e11b81526001600160a01b03808316600483015287166024820152604401610462565b6106e38686868686610a33565b505050505050565b6106f361097f565b6003546040516001600160a01b03909116904780156108fc02916000818181858888f1935050505015801561072c573d6000803e3d6000fd5b50565b606081518351146107605781518351604051635b05999160e01b815260048101929092526024820152604401610462565b6000835167ffffffffffffffff81111561077c5761077c6111ba565b6040519080825280602002602001820160405280156107a5578160200160208202803683370190505b50905060005b84518110156107f4576020808202860101516107cf90602080840287010151610392565b8282815181106107e1576107e16115f8565b60209081029190910101526001016107ab565b509392505050565b61080461097f565b6106826000610a9a565b610819338383610aec565b5050565b60076020526000908152604090208054610836906115be565b80601f0160208091040260200160405190810160405280929190818152602001828054610862906115be565b80156108af5780601f10610884576101008083540402835291602001916108af565b820191906000526020600020905b81548152906001019060200180831161089257829003601f168201915b505050505081565b6001600160a01b03918216600090815260016020908152604080832093909416825291909152205460ff1690565b336001600160a01b0386168114801590610906575061090486826108b7565b155b156109375760405163711bec9160e11b81526001600160a01b03808316600483015287166024820152604401610462565b6106e38686868686610b82565b61094c61097f565b6001600160a01b03811661097657604051631e4fbdf760e01b815260006004820152602401610462565b61072c81610a9a565b6003546001600160a01b031633146106825760405163118cdaa760e01b8152336004820152602401610462565b6002600454036109cf57604051633ee5aeb560e01b815260040160405180910390fd5b6002600455565b6001600160a01b038416610a0057604051632bfa23e760e11b815260006004820152602401610462565b604080516001808252602082018690528183019081526060820185905260808201909252906106e3600087848487610c10565b6001600160a01b038416610a5d57604051632bfa23e760e11b815260006004820152602401610462565b6001600160a01b038516610a8657604051626a0d4560e21b815260006004820152602401610462565b610a938585858585610c10565b5050505050565b600380546001600160a01b038381166001600160a01b0319831681179093556040519116919082907f8be0079c531659141344cd1fd0a4f28419497f9722a3daafe3b4186f6b6457e090600090a35050565b6001600160a01b038216610b155760405162ced3e160e81b815260006004820152602401610462565b6001600160a01b03838116600081815260016020908152604080832094871680845294825291829020805460ff191686151590811790915591519182527f17307eab39ab6107e8899845ad3d59bd9653f200f220920489ca2b5937696c31910160405180910390a3505050565b6001600160a01b038416610bac57604051632bfa23e760e11b815260006004820152602401610462565b6001600160a01b038516610bd557604051626a0d4560e21b815260006004820152602401610462565b60408051600180825260208201869052818301908152606082018590526080820190925290610c078787848487610c10565b50505050505050565b610c1c85858585610c63565b6001600160a01b03841615610a935782513390600103610c555760208481015190840151610c4e838989858589610e77565b50506106e3565b6106e3818787878787610f9b565b8051825114610c925781518151604051635b05999160e01b815260048101929092526024820152604401610462565b3360005b8351811015610d98576020818102858101820151908501909101516001600160a01b03881615610d49576000828152602081815260408083206001600160a01b038c16845290915290205481811015610d22576040516303dee4c560e01b81526001600160a01b038a166004820152602481018290526044810183905260648101849052608401610462565b6000838152602081815260408083206001600160a01b038d16845290915290209082900390555b6001600160a01b03871615610d8e576000828152602081815260408083206001600160a01b038b16845290915281208054839290610d8890849061160e565b90915550505b5050600101610c96565b508251600103610e195760208301516000906020840151909150856001600160a01b0316876001600160a01b0316846001600160a01b03167fc3d58168c5ae7397731d063d5bbf3d657854427343f4c083240f7aacaa2d0f628585604051610e0a929190918252602082015260400190565b60405180910390a45050610a93565b836001600160a01b0316856001600160a01b0316826001600160a01b03167f4a39dc06d4c0dbc64b70af90fd698a233a518aa5d07e595d983b8c0526c8f7fb8686604051610e6892919061162f565b60405180910390a45050505050565b6001600160a01b0384163b156106e35760405163f23a6e6160e01b81526001600160a01b0385169063f23a6e6190610ebb908990899088908890889060040161165d565b6020604051808303816000875af1925050508015610ef6575060408051601f3d908101601f19168201909252610ef3918101906116a2565b60015b610f5f573d808015610f24576040519150601f19603f3d011682016040523d82523d6000602084013e610f29565b606091505b508051600003610f5757604051632bfa23e760e11b81526001600160a01b0386166004820152602401610462565b805181602001fd5b6001600160e01b0319811663f23a6e6160e01b14610c0757604051632bfa23e760e11b81526001600160a01b0386166004820152602401610462565b6001600160a01b0384163b156106e35760405163bc197c8160e01b81526001600160a01b0385169063bc197c8190610fdf90899089908890889088906004016116bf565b6020604051808303816000875af192505050801561101a575060408051601f3d908101601f19168201909252611017918101906116a2565b60015b611048573d808015610f24576040519150601f19603f3d011682016040523d82523d6000602084013e610f29565b6001600160e01b0319811663bc197c8160e01b14610c0757604051632bfa23e760e11b81526001600160a01b0386166004820152602401610462565b80356001600160a01b038116811461109b57600080fd5b919050565b600080604083850312156110b357600080fd5b6110bc83611084565b946020939093013593505050565b6001600160e01b03198116811461072c57600080fd5b6000602082840312156110f257600080fd5b81356110fd816110ca565b9392505050565b803560ff8116811461109b57600080fd5b6000806040838503121561112857600080fd5b61113183611084565b915061113f60208401611104565b90509250929050565b60006020828403121561115a57600080fd5b5035919050565b6000815180845260005b818110156111875760208185018101518683018201520161116b565b506000602082860101526020601f19601f83011685010191505092915050565b6020815260006110fd6020830184611161565b634e487b7160e01b600052604160045260246000fd5b604051601f8201601f1916810167ffffffffffffffff811182821017156111f9576111f96111ba565b604052919050565b600067ffffffffffffffff82111561121b5761121b6111ba565b5060051b60200190565b600082601f83011261123657600080fd5b8135602061124b61124683611201565b6111d0565b8083825260208201915060208460051b87010193508684111561126d57600080fd5b602086015b848110156112895780358352918301918301611272565b509695505050505050565b600082601f8301126112a557600080fd5b813567ffffffffffffffff8111156112bf576112bf6111ba565b6112d2601f8201601f19166020016111d0565b8181528460208386010111156112e757600080fd5b816020850160208301376000918101602001919091529392505050565b600080600080600060a0868803121561131c57600080fd5b61132586611084565b945061133360208701611084565b9350604086013567ffffffffffffffff8082111561135057600080fd5b61135c89838a01611225565b9450606088013591508082111561137257600080fd5b61137e89838a01611225565b9350608088013591508082111561139457600080fd5b506113a188828901611294565b9150509295509295909350565b6000602082840312156113c057600080fd5b6110fd82611084565b600080604083850312156113dc57600080fd5b823567ffffffffffffffff808211156113f457600080fd5b818501915085601f83011261140857600080fd5b8135602061141861124683611201565b82815260059290921b8401810191818101908984111561143757600080fd5b948201945b8386101561145c5761144d86611084565b8252948201949082019061143c565b9650508601359250508082111561147257600080fd5b5061147f85828601611225565b9150509250929050565b60008151808452602080850194506020840160005b838110156114ba5781518752958201959082019060010161149e565b509495945050505050565b6020815260006110fd6020830184611489565b600080604083850312156114eb57600080fd5b6114f483611084565b91506020830135801515811461150957600080fd5b809150509250929050565b60006020828403121561152657600080fd5b6110fd82611104565b6000806040838503121561154257600080fd5b61154b83611084565b915061113f60208401611084565b600080600080600060a0868803121561157157600080fd5b61157a86611084565b945061158860208701611084565b93506040860135925060608601359150608086013567ffffffffffffffff8111156115b257600080fd5b6113a188828901611294565b600181811c908216806115d257607f821691505b6020821081036115f257634e487b7160e01b600052602260045260246000fd5b50919050565b634e487b7160e01b600052603260045260246000fd5b808201808211156103b457634e487b7160e01b600052601160045260246000fd5b6040815260006116426040830185611489565b82810360208401526116548185611489565b95945050505050565b6001600160a01b03868116825285166020820152604081018490526060810183905260a06080820181905260009061169790830184611161565b979650505050505050565b6000602082840312156116b457600080fd5b81516110fd816110ca565b6001600160a01b0386811682528516602082015260a0604082018190526000906116eb90830186611489565b82810360608401526116fd8186611489565b905082810360808401526117118185611161565b9897505050505050505056fea26469706673582212208776e9da2c077bdaede7c8dac372cf7c2ceaa7c3dca6a655c2a4c1bdef859db364736f6c6343000818003368747470733a2f2f697066732e696f2f697066732f516d583276346137593678385a336739516b7a3547374a366638467133",
  "linkReferences": {},
  "deployedLinkReferences": {}
}